{
  "_format": "hh-sol-artifact-1",
  "contractName": "CarbonSustain",
  "sourceName": "contracts/CarbonSustain.sol",
  "abi": [
    {
      "inputs": [
        {
          "internalType": "address",
          "name": "_klimaDAO",
          "type": "address"
        },
        {
          "internalType": "address",
          "name": "_toucan",
          "type": "address"
        },
        {
          "internalType": "address",
          "name": "_profitWallet",
          "type": "address"
        }
      ],
      "stateMutability": "nonpayable",
      "type": "constructor"
    },
    {
      "inputs": [
        {
          "internalType": "address",
          "name": "owner",
          "type": "address"
        }
      ],
      "name": "OwnableInvalidOwner",
      "type": "error"
    },
    {
      "inputs": [
        {
          "internalType": "address",
          "name": "account",
          "type": "address"
        }
      ],
      "name": "OwnableUnauthorizedAccount",
      "type": "error"
    },
    {
      "anonymous": false,
      "inputs": [
        {
          "indexed": true,
          "internalType": "address",
          "name": "user",
          "type": "address"
        },
        {
          "indexed": false,
          "internalType": "uint256",
          "name": "companyId",
          "type": "uint256"
        },
        {
          "indexed": false,
          "internalType": "uint256",
          "name": "amount",
          "type": "uint256"
        }
      ],
      "name": "CarbonCreditCreated",
      "type": "event"
    },
    {
      "anonymous": false,
      "inputs": [
        {
          "indexed": true,
          "internalType": "address",
          "name": "previousOwner",
          "type": "address"
        },
        {
          "indexed": true,
          "internalType": "address",
          "name": "newOwner",
          "type": "address"
        }
      ],
      "name": "OwnershipTransferred",
      "type": "event"
    },
    {
      "anonymous": false,
      "inputs": [
        {
          "indexed": true,
          "internalType": "address",
          "name": "recipient",
          "type": "address"
        },
        {
          "indexed": false,
          "internalType": "uint256",
          "name": "amount",
          "type": "uint256"
        }
      ],
      "name": "ProfitShared",
      "type": "event"
    },
    {
      "inputs": [
        {
          "internalType": "address",
          "name": "",
          "type": "address"
        }
      ],
      "name": "carbonCredits",
      "outputs": [
        {
          "internalType": "uint256",
          "name": "companyId",
          "type": "uint256"
        },
        {
          "internalType": "address",
          "name": "wallet",
          "type": "address"
        },
        {
          "internalType": "uint256",
          "name": "amount",
          "type": "uint256"
        }
      ],
      "stateMutability": "view",
      "type": "function"
    },
    {
      "inputs": [
        {
          "internalType": "uint256",
          "name": "_companyId",
          "type": "uint256"
        },
        {
          "internalType": "uint256",
          "name": "_amount",
          "type": "uint256"
        }
      ],
      "name": "createCarbonCredit",
      "outputs": [],
      "stateMutability": "nonpayable",
      "type": "function"
    },
    {
      "inputs": [
        {
          "internalType": "uint256",
          "name": "_amount",
          "type": "uint256"
        }
      ],
      "name": "distributeProfits",
      "outputs": [],
      "stateMutability": "nonpayable",
      "type": "function"
    },
    {
      "inputs": [],
      "name": "klimaDAOToken",
      "outputs": [
        {
          "internalType": "contract IERC20",
          "name": "",
          "type": "address"
        }
      ],
      "stateMutability": "view",
      "type": "function"
    },
    {
      "inputs": [],
      "name": "owner",
      "outputs": [
        {
          "internalType": "address",
          "name": "",
          "type": "address"
        }
      ],
      "stateMutability": "view",
      "type": "function"
    },
    {
      "inputs": [],
      "name": "profitWallet",
      "outputs": [
        {
          "internalType": "address",
          "name": "",
          "type": "address"
        }
      ],
      "stateMutability": "view",
      "type": "function"
    },
    {
      "inputs": [],
      "name": "renounceOwnership",
      "outputs": [],
      "stateMutability": "nonpayable",
      "type": "function"
    },
    {
      "inputs": [],
      "name": "toucanToken",
      "outputs": [
        {
          "internalType": "contract IERC20",
          "name": "",
          "type": "address"
        }
      ],
      "stateMutability": "view",
      "type": "function"
    },
    {
      "inputs": [
        {
          "internalType": "address",
          "name": "newOwner",
          "type": "address"
        }
      ],
      "name": "transferOwnership",
      "outputs": [],
      "stateMutability": "nonpayable",
      "type": "function"
    }
  ],
  "bytecode": "0x60806040523480156200001157600080fd5b50604051620013bf380380620013bf8339818101604052810190620000379190620002b9565b33600073ffffffffffffffffffffffffffffffffffffffff168173ffffffffffffffffffffffffffffffffffffffff1603620000ad5760006040517f1e4fbdf7000000000000000000000000000000000000000000000000000000008152600401620000a4919062000326565b60405180910390fd5b620000be816200018b60201b60201c565b5082600160006101000a81548173ffffffffffffffffffffffffffffffffffffffff021916908373ffffffffffffffffffffffffffffffffffffffff16021790555081600260006101000a81548173ffffffffffffffffffffffffffffffffffffffff021916908373ffffffffffffffffffffffffffffffffffffffff16021790555080600360006101000a81548173ffffffffffffffffffffffffffffffffffffffff021916908373ffffffffffffffffffffffffffffffffffffffff16021790555050505062000343565b60008060009054906101000a900473ffffffffffffffffffffffffffffffffffffffff169050816000806101000a81548173ffffffffffffffffffffffffffffffffffffffff021916908373ffffffffffffffffffffffffffffffffffffffff1602179055508173ffffffffffffffffffffffffffffffffffffffff168173ffffffffffffffffffffffffffffffffffffffff167f8be0079c531659141344cd1fd0a4f28419497f9722a3daafe3b4186f6b6457e060405160405180910390a35050565b600080fd5b600073ffffffffffffffffffffffffffffffffffffffff82169050919050565b6000620002818262000254565b9050919050565b620002938162000274565b81146200029f57600080fd5b50565b600081519050620002b38162000288565b92915050565b600080600060608486031215620002d557620002d46200024f565b5b6000620002e586828701620002a2565b9350506020620002f886828701620002a2565b92505060406200030b86828701620002a2565b9150509250925092565b620003208162000274565b82525050565b60006020820190506200033d600083018462000315565b92915050565b61106c80620003536000396000f3fe608060405234801561001057600080fd5b50600436106100935760003560e01c80637aa2bdd4116100665780637aa2bdd4146100fa5780638ba4788e1461012c5780638da5cb5b1461014a5780639a96976814610168578063f2fde38b1461018457610093565b80630d4ff25a146100985780630df5f92a146100b45780632301d775146100d2578063715018a6146100f0575b600080fd5b6100b260048036038101906100ad9190610abe565b6101a0565b005b6100bc6104d9565b6040516100c99190610b7d565b60405180910390f35b6100da6104ff565b6040516100e79190610bb9565b60405180910390f35b6100f8610525565b005b610114600480360381019061010f9190610c00565b610539565b60405161012393929190610c3c565b60405180910390f35b610134610583565b6040516101419190610b7d565b60405180910390f35b6101526105a9565b60405161015f9190610bb9565b60405180910390f35b610182600480360381019061017d9190610c73565b6105d2565b005b61019e60048036038101906101999190610c00565b6108aa565b005b600081116101e3576040517f08c379a00000000000000000000000000000000000000000000000000000000081526004016101da90610cfd565b60405180910390fd5b60006002826101f29190610d4c565b9050600160009054906101000a900473ffffffffffffffffffffffffffffffffffffffff1673ffffffffffffffffffffffffffffffffffffffff166323b872dd3330846040518463ffffffff1660e01b815260040161025393929190610d7d565b6020604051808303816000875af1158015610272573d6000803e3d6000fd5b505050506040513d601f19601f820116820180604052508101906102969190610dec565b6102d5576040517f08c379a00000000000000000000000000000000000000000000000000000000081526004016102cc90610e65565b60405180910390fd5b600260009054906101000a900473ffffffffffffffffffffffffffffffffffffffff1673ffffffffffffffffffffffffffffffffffffffff166323b872dd3330846040518463ffffffff1660e01b815260040161033493929190610d7d565b6020604051808303816000875af1158015610353573d6000803e3d6000fd5b505050506040513d601f19601f820116820180604052508101906103779190610dec565b6103b6576040517f08c379a00000000000000000000000000000000000000000000000000000000081526004016103ad90610ed1565b60405180910390fd5b60405180606001604052808481526020013373ffffffffffffffffffffffffffffffffffffffff16815260200183815250600460003373ffffffffffffffffffffffffffffffffffffffff1673ffffffffffffffffffffffffffffffffffffffff1681526020019081526020016000206000820151816000015560208201518160010160006101000a81548173ffffffffffffffffffffffffffffffffffffffff021916908373ffffffffffffffffffffffffffffffffffffffff160217905550604082015181600201559050503373ffffffffffffffffffffffffffffffffffffffff167f44c0c99207b933979cebaf7bd96a3c33d8b9459463dc9e38cbb7a64e320c025584846040516104cc929190610ef1565b60405180910390a2505050565b600260009054906101000a900473ffffffffffffffffffffffffffffffffffffffff1681565b600360009054906101000a900473ffffffffffffffffffffffffffffffffffffffff1681565b61052d610930565b61053760006109b7565b565b60046020528060005260406000206000915090508060000154908060010160009054906101000a900473ffffffffffffffffffffffffffffffffffffffff16908060020154905083565b600160009054906101000a900473ffffffffffffffffffffffffffffffffffffffff1681565b60008060009054906101000a900473ffffffffffffffffffffffffffffffffffffffff16905090565b6105da610930565b6000811161061d576040517f08c379a000000000000000000000000000000000000000000000000000000000815260040161061490610cfd565b60405180910390fd5b600160009054906101000a900473ffffffffffffffffffffffffffffffffffffffff1673ffffffffffffffffffffffffffffffffffffffff1663a9059cbb600360009054906101000a900473ffffffffffffffffffffffffffffffffffffffff1660028461068b9190610d4c565b6040518363ffffffff1660e01b81526004016106a8929190610f1a565b6020604051808303816000875af11580156106c7573d6000803e3d6000fd5b505050506040513d601f19601f820116820180604052508101906106eb9190610dec565b61072a576040517f08c379a000000000000000000000000000000000000000000000000000000000815260040161072190610f8f565b60405180910390fd5b600260009054906101000a900473ffffffffffffffffffffffffffffffffffffffff1673ffffffffffffffffffffffffffffffffffffffff1663a9059cbb600360009054906101000a900473ffffffffffffffffffffffffffffffffffffffff166002846107989190610d4c565b6040518363ffffffff1660e01b81526004016107b5929190610f1a565b6020604051808303816000875af11580156107d4573d6000803e3d6000fd5b505050506040513d601f19601f820116820180604052508101906107f89190610dec565b610837576040517f08c379a000000000000000000000000000000000000000000000000000000000815260040161082e90610ffb565b60405180910390fd5b600360009054906101000a900473ffffffffffffffffffffffffffffffffffffffff1673ffffffffffffffffffffffffffffffffffffffff167f506c96ffad2d6f1cf40426a780c7b94f06b8c83a1bd4efc829fa975ead8549dc8260405161089f919061101b565b60405180910390a250565b6108b2610930565b600073ffffffffffffffffffffffffffffffffffffffff168173ffffffffffffffffffffffffffffffffffffffff16036109245760006040517f1e4fbdf700000000000000000000000000000000000000000000000000000000815260040161091b9190610bb9565b60405180910390fd5b61092d816109b7565b50565b610938610a7b565b73ffffffffffffffffffffffffffffffffffffffff166109566105a9565b73ffffffffffffffffffffffffffffffffffffffff16146109b557610979610a7b565b6040517f118cdaa70000000000000000000000000000000000000000000000000000000081526004016109ac9190610bb9565b60405180910390fd5b565b60008060009054906101000a900473ffffffffffffffffffffffffffffffffffffffff169050816000806101000a81548173ffffffffffffffffffffffffffffffffffffffff021916908373ffffffffffffffffffffffffffffffffffffffff1602179055508173ffffffffffffffffffffffffffffffffffffffff168173ffffffffffffffffffffffffffffffffffffffff167f8be0079c531659141344cd1fd0a4f28419497f9722a3daafe3b4186f6b6457e060405160405180910390a35050565b600033905090565b600080fd5b6000819050919050565b610a9b81610a88565b8114610aa657600080fd5b50565b600081359050610ab881610a92565b92915050565b60008060408385031215610ad557610ad4610a83565b5b6000610ae385828601610aa9565b9250506020610af485828601610aa9565b9150509250929050565b600073ffffffffffffffffffffffffffffffffffffffff82169050919050565b6000819050919050565b6000610b43610b3e610b3984610afe565b610b1e565b610afe565b9050919050565b6000610b5582610b28565b9050919050565b6000610b6782610b4a565b9050919050565b610b7781610b5c565b82525050565b6000602082019050610b926000830184610b6e565b92915050565b6000610ba382610afe565b9050919050565b610bb381610b98565b82525050565b6000602082019050610bce6000830184610baa565b92915050565b610bdd81610b98565b8114610be857600080fd5b50565b600081359050610bfa81610bd4565b92915050565b600060208284031215610c1657610c15610a83565b5b6000610c2484828501610beb565b91505092915050565b610c3681610a88565b82525050565b6000606082019050610c516000830186610c2d565b610c5e6020830185610baa565b610c6b6040830184610c2d565b949350505050565b600060208284031215610c8957610c88610a83565b5b6000610c9784828501610aa9565b91505092915050565b600082825260208201905092915050565b7f416d6f756e74206d7573742062652067726561746572207468616e207a65726f600082015250565b6000610ce7602083610ca0565b9150610cf282610cb1565b602082019050919050565b60006020820190508181036000830152610d1681610cda565b9050919050565b7f4e487b7100000000000000000000000000000000000000000000000000000000600052601260045260246000fd5b6000610d5782610a88565b9150610d6283610a88565b925082610d7257610d71610d1d565b5b828204905092915050565b6000606082019050610d926000830186610baa565b610d9f6020830185610baa565b610dac6040830184610c2d565b949350505050565b60008115159050919050565b610dc981610db4565b8114610dd457600080fd5b50565b600081519050610de681610dc0565b92915050565b600060208284031215610e0257610e01610a83565b5b6000610e1084828501610dd7565b91505092915050565b7f4b6c696d6144414f207472616e73666572206661696c65640000000000000000600082015250565b6000610e4f601883610ca0565b9150610e5a82610e19565b602082019050919050565b60006020820190508181036000830152610e7e81610e42565b9050919050565b7f546f7563616e207472616e73666572206661696c656400000000000000000000600082015250565b6000610ebb601683610ca0565b9150610ec682610e85565b602082019050919050565b60006020820190508181036000830152610eea81610eae565b9050919050565b6000604082019050610f066000830185610c2d565b610f136020830184610c2d565b9392505050565b6000604082019050610f2f6000830185610baa565b610f3c6020830184610c2d565b9392505050565b7f4b6c696d6144414f2070726f666974207472616e73666572206661696c656400600082015250565b6000610f79601f83610ca0565b9150610f8482610f43565b602082019050919050565b60006020820190508181036000830152610fa881610f6c565b9050919050565b7f546f7563616e2070726f666974207472616e73666572206661696c6564000000600082015250565b6000610fe5601d83610ca0565b9150610ff082610faf565b602082019050919050565b6000602082019050818103600083015261101481610fd8565b9050919050565b60006020820190506110306000830184610c2d565b9291505056fea264697066735822122082fb97cf7d7c1fa4b7e3bd21c50875b306a4e94566ca497fcee9e3f770ccf28b64736f6c63430008140033",
  "linkReferences": {},
  "deployedLinkReferences": {}
}